{
  "_format": "hh-sol-artifact-1",
  "contractName": "VIPMembership",
  "sourceName": "contracts/VIPMembership.sol",
  "abi": [
    {
      "inputs": [
        {
          "internalType": "uint256",
          "name": "_baseMembershipPrice",
          "type": "uint256"
        }
      ],
      "stateMutability": "nonpayable",
      "type": "constructor"
    },
    {
      "anonymous": false,
      "inputs": [
        {
          "indexed": true,
          "internalType": "address",
          "name": "member",
          "type": "address"
        },
        {
          "indexed": false,
          "internalType": "uint256",
          "name": "amount",
          "type": "uint256"
        },
        {
          "indexed": false,
          "internalType": "uint8",
          "name": "tier",
          "type": "uint8"
        }
      ],
      "name": "MembershipPurchased",
      "type": "event"
    },
    {
      "anonymous": false,
      "inputs": [
        {
          "indexed": true,
          "internalType": "address",
          "name": "member",
          "type": "address"
        }
      ],
      "name": "MembershipRevoked",
      "type": "event"
    },
    {
      "inputs": [
        {
          "internalType": "address",
          "name": "memberAddress",
          "type": "address"
        },
        {
          "internalType": "uint8",
          "name": "tier",
          "type": "uint8"
        }
      ],
      "name": "addMember",
      "outputs": [],
      "stateMutability": "nonpayable",
      "type": "function"
    },
    {
      "inputs": [],
      "name": "baseMembershipPrice",
      "outputs": [
        {
          "internalType": "uint256",
          "name": "",
          "type": "uint256"
        }
      ],
      "stateMutability": "view",
      "type": "function"
    },
    {
      "inputs": [
        {
          "internalType": "uint8",
          "name": "tier",
          "type": "uint8"
        }
      ],
      "name": "calculateMembershipPrice",
      "outputs": [
        {
          "internalType": "uint256",
          "name": "",
          "type": "uint256"
        }
      ],
      "stateMutability": "view",
      "type": "function"
    },
    {
      "inputs": [],
      "name": "getBaseMembershipPrice",
      "outputs": [
        {
          "internalType": "uint256",
          "name": "",
          "type": "uint256"
        }
      ],
      "stateMutability": "view",
      "type": "function"
    },
    {
      "inputs": [
        {
          "internalType": "uint256",
          "name": "amount",
          "type": "uint256"
        }
      ],
      "name": "getTierLevel",
      "outputs": [
        {
          "internalType": "uint8",
          "name": "",
          "type": "uint8"
        }
      ],
      "stateMutability": "view",
      "type": "function"
    },
    {
      "inputs": [
        {
          "internalType": "address",
          "name": "memberAddress",
          "type": "address"
        }
      ],
      "name": "isAddressVIP",
      "outputs": [
        {
          "internalType": "bool",
          "name": "",
          "type": "bool"
        }
      ],
      "stateMutability": "view",
      "type": "function"
    },
    {
      "inputs": [
        {
          "internalType": "address",
          "name": "",
          "type": "address"
        }
      ],
      "name": "isVipMember",
      "outputs": [
        {
          "internalType": "bool",
          "name": "",
          "type": "bool"
        }
      ],
      "stateMutability": "view",
      "type": "function"
    },
    {
      "inputs": [],
      "name": "owner",
      "outputs": [
        {
          "internalType": "address",
          "name": "",
          "type": "address"
        }
      ],
      "stateMutability": "view",
      "type": "function"
    },
    {
      "inputs": [],
      "name": "purchaseMembership",
      "outputs": [],
      "stateMutability": "payable",
      "type": "function"
    },
    {
      "inputs": [
        {
          "internalType": "address",
          "name": "memberAddress",
          "type": "address"
        }
      ],
      "name": "removeMember",
      "outputs": [],
      "stateMutability": "nonpayable",
      "type": "function"
    },
    {
      "inputs": [
        {
          "internalType": "uint256",
          "name": "_baseMembershipPrice",
          "type": "uint256"
        }
      ],
      "name": "setMembershipPrice",
      "outputs": [],
      "stateMutability": "nonpayable",
      "type": "function"
    },
    {
      "inputs": [
        {
          "internalType": "address",
          "name": "",
          "type": "address"
        }
      ],
      "name": "tierLevels",
      "outputs": [
        {
          "internalType": "uint8",
          "name": "",
          "type": "uint8"
        }
      ],
      "stateMutability": "view",
      "type": "function"
    },
    {
      "inputs": [],
      "name": "withdrawBalance",
      "outputs": [],
      "stateMutability": "nonpayable",
      "type": "function"
    }
  ],
  "bytecode": "0x608060405234801562000010575f80fd5b506040516200148d3803806200148d8339818101604052810190620000369190620000bf565b335f806101000a81548173ffffffffffffffffffffffffffffffffffffffff021916908373ffffffffffffffffffffffffffffffffffffffff1602179055508060018190555050620000ef565b5f80fd5b5f819050919050565b6200009b8162000087565b8114620000a6575f80fd5b50565b5f81519050620000b98162000090565b92915050565b5f60208284031215620000d757620000d662000083565b5b5f620000e684828501620000a9565b91505092915050565b61139080620000fd5f395ff3fe6080604052600436106100c1575f3560e01c806362d0d1c31161007e578063b08d563c11610058578063b08d563c14610229578063b7713b7c14610253578063c0b5888b1461028f578063fb9e89a5146102cb576100c1565b806362d0d1c3146101af57806369d5f38a146101d75780638da5cb5b146101ff576100c1565b8063010e4bfe146100c55780630b1ca49a146100ef57806325fe18bf146101175780633dac40c51461015357806347bbe8671461018f5780635fd8c71014610199575b5f80fd5b3480156100d0575f80fd5b506100d9610307565b6040516100e69190610bfc565b60405180910390f35b3480156100fa575f80fd5b5061011560048036038101906101109190610c73565b61030d565b005b348015610122575f80fd5b5061013d60048036038101906101389190610c73565b610509565b60405161014a9190610cb8565b60405180910390f35b34801561015e575f80fd5b5061017960048036038101906101749190610d07565b61055b565b6040516101869190610bfc565b60405180910390f35b61019761057d565b005b3480156101a4575f80fd5b506101ad610760565b005b3480156101ba575f80fd5b506101d560048036038101906101d09190610d32565b610852565b005b3480156101e2575f80fd5b506101fd60048036038101906101f89190610d9a565b610aac565b005b34801561020a575f80fd5b50610213610b43565b6040516102209190610dd4565b60405180910390f35b348015610234575f80fd5b5061023d610b66565b60405161024a9190610bfc565b60405180910390f35b34801561025e575f80fd5b5061027960048036038101906102749190610d9a565b610b6f565b6040516102869190610dfc565b60405180910390f35b34801561029a575f80fd5b506102b560048036038101906102b09190610c73565b610baa565b6040516102c29190610dfc565b60405180910390f35b3480156102d6575f80fd5b506102f160048036038101906102ec9190610c73565b610bc7565b6040516102fe9190610cb8565b60405180910390f35b60015481565b5f8054906101000a900473ffffffffffffffffffffffffffffffffffffffff1673ffffffffffffffffffffffffffffffffffffffff163373ffffffffffffffffffffffffffffffffffffffff161461039a576040517f08c379a000000000000000000000000000000000000000000000000000000000815260040161039190610e95565b60405180910390fd5b60025f8273ffffffffffffffffffffffffffffffffffffffff1673ffffffffffffffffffffffffffffffffffffffff1681526020019081526020015f205f9054906101000a900460ff16610423576040517f08c379a000000000000000000000000000000000000000000000000000000000815260040161041a90610efd565b60405180910390fd5b5f60025f8373ffffffffffffffffffffffffffffffffffffffff1673ffffffffffffffffffffffffffffffffffffffff1681526020019081526020015f205f6101000a81548160ff02191690831515021790555060035f8273ffffffffffffffffffffffffffffffffffffffff1673ffffffffffffffffffffffffffffffffffffffff1681526020019081526020015f205f6101000a81549060ff02191690558073ffffffffffffffffffffffffffffffffffffffff167fdb4f86f4e3926c467d3434a00cc562d038163012ae34dcc94fca7c85246f1bbe60405160405180910390a250565b5f60025f8373ffffffffffffffffffffffffffffffffffffffff1673ffffffffffffffffffffffffffffffffffffffff1681526020019081526020015f205f9054906101000a900460ff169050919050565b5f8160026105699190611077565b60015461057691906110c1565b9050919050565b5f61058734610b6f565b90505f6105938261055b565b9050803410156105d8576040517f08c379a00000000000000000000000000000000000000000000000000000000081526004016105cf9061114c565b60405180910390fd5b60025f3373ffffffffffffffffffffffffffffffffffffffff1673ffffffffffffffffffffffffffffffffffffffff1681526020019081526020015f205f9054906101000a900460ff1615610662576040517f08c379a0000000000000000000000000000000000000000000000000000000008152600401610659906111b4565b60405180910390fd5b600160025f3373ffffffffffffffffffffffffffffffffffffffff1673ffffffffffffffffffffffffffffffffffffffff1681526020019081526020015f205f6101000a81548160ff0219169083151502179055508160035f3373ffffffffffffffffffffffffffffffffffffffff1673ffffffffffffffffffffffffffffffffffffffff1681526020019081526020015f205f6101000a81548160ff021916908360ff1602179055503373ffffffffffffffffffffffffffffffffffffffff167fed702d9bd8851b6705898d856aa7c73ab403d810e2445217a80ed5bde34e0afc34846040516107549291906111d2565b60405180910390a25050565b5f8054906101000a900473ffffffffffffffffffffffffffffffffffffffff1673ffffffffffffffffffffffffffffffffffffffff163373ffffffffffffffffffffffffffffffffffffffff16146107ed576040517f08c379a00000000000000000000000000000000000000000000000000000000081526004016107e490610e95565b60405180910390fd5b5f8054906101000a900473ffffffffffffffffffffffffffffffffffffffff1673ffffffffffffffffffffffffffffffffffffffff166108fc4790811502906040515f60405180830381858888f1935050505015801561084f573d5f803e3d5ffd5b50565b5f8054906101000a900473ffffffffffffffffffffffffffffffffffffffff1673ffffffffffffffffffffffffffffffffffffffff163373ffffffffffffffffffffffffffffffffffffffff16146108df576040517f08c379a00000000000000000000000000000000000000000000000000000000081526004016108d690610e95565b60405180910390fd5b60025f8373ffffffffffffffffffffffffffffffffffffffff1673ffffffffffffffffffffffffffffffffffffffff1681526020019081526020015f205f9054906101000a900460ff1615610969576040517f08c379a000000000000000000000000000000000000000000000000000000000815260040161096090611243565b60405180910390fd5b5f8160ff16116109ae576040517f08c379a00000000000000000000000000000000000000000000000000000000081526004016109a5906112ab565b60405180910390fd5b600160025f8473ffffffffffffffffffffffffffffffffffffffff1673ffffffffffffffffffffffffffffffffffffffff1681526020019081526020015f205f6101000a81548160ff0219169083151502179055508060035f8473ffffffffffffffffffffffffffffffffffffffff1673ffffffffffffffffffffffffffffffffffffffff1681526020019081526020015f205f6101000a81548160ff021916908360ff1602179055508173ffffffffffffffffffffffffffffffffffffffff167fed702d9bd8851b6705898d856aa7c73ab403d810e2445217a80ed5bde34e0afc5f83604051610aa092919061130b565b60405180910390a25050565b5f8054906101000a900473ffffffffffffffffffffffffffffffffffffffff1673ffffffffffffffffffffffffffffffffffffffff163373ffffffffffffffffffffffffffffffffffffffff1614610b39576040517f08c379a0000000000000000000000000000000000000000000000000000000008152600401610b3090610e95565b60405180910390fd5b8060018190555050565b5f8054906101000a900473ffffffffffffffffffffffffffffffffffffffff1681565b5f600154905090565b5f805f90505f60015490505b808410610ba0578180610b8d90611332565b925050610b998261055b565b9050610b7b565b8192505050919050565b6003602052805f5260405f205f915054906101000a900460ff1681565b6002602052805f5260405f205f915054906101000a900460ff1681565b5f819050919050565b610bf681610be4565b82525050565b5f602082019050610c0f5f830184610bed565b92915050565b5f80fd5b5f73ffffffffffffffffffffffffffffffffffffffff82169050919050565b5f610c4282610c19565b9050919050565b610c5281610c38565b8114610c5c575f80fd5b50565b5f81359050610c6d81610c49565b92915050565b5f60208284031215610c8857610c87610c15565b5b5f610c9584828501610c5f565b91505092915050565b5f8115159050919050565b610cb281610c9e565b82525050565b5f602082019050610ccb5f830184610ca9565b92915050565b5f60ff82169050919050565b610ce681610cd1565b8114610cf0575f80fd5b50565b5f81359050610d0181610cdd565b92915050565b5f60208284031215610d1c57610d1b610c15565b5b5f610d2984828501610cf3565b91505092915050565b5f8060408385031215610d4857610d47610c15565b5b5f610d5585828601610c5f565b9250506020610d6685828601610cf3565b9150509250929050565b610d7981610be4565b8114610d83575f80fd5b50565b5f81359050610d9481610d70565b92915050565b5f60208284031215610daf57610dae610c15565b5b5f610dbc84828501610d86565b91505092915050565b610dce81610c38565b82525050565b5f602082019050610de75f830184610dc5565b92915050565b610df681610cd1565b82525050565b5f602082019050610e0f5f830184610ded565b92915050565b5f82825260208201905092915050565b7f4f6e6c7920746865206f776e65722063616e20706572666f726d2074686973205f8201527f616374696f6e0000000000000000000000000000000000000000000000000000602082015250565b5f610e7f602683610e15565b9150610e8a82610e25565b604082019050919050565b5f6020820190508181035f830152610eac81610e73565b9050919050565b7f41646472657373206973206e6f74206120564950206d656d62657200000000005f82015250565b5f610ee7601b83610e15565b9150610ef282610eb3565b602082019050919050565b5f6020820190508181035f830152610f1481610edb565b9050919050565b7f4e487b71000000000000000000000000000000000000000000000000000000005f52601160045260245ffd5b5f8160011c9050919050565b5f808291508390505b6001851115610f9d57808604811115610f7957610f78610f1b565b5b6001851615610f885780820291505b8081029050610f9685610f48565b9450610f5d565b94509492505050565b5f82610fb55760019050611070565b81610fc2575f9050611070565b8160018114610fd85760028114610fe257611011565b6001915050611070565b60ff841115610ff457610ff3610f1b565b5b8360020a91508482111561100b5761100a610f1b565b5b50611070565b5060208310610133831016604e8410600b84101617156110465782820a90508381111561104157611040610f1b565b5b611070565b6110538484846001610f54565b9250905081840481111561106a57611069610f1b565b5b81810290505b9392505050565b5f61108182610be4565b915061108c83610cd1565b92506110b97fffffffffffffffffffffffffffffffffffffffffffffffffffffffffffffffff8484610fa6565b905092915050565b5f6110cb82610be4565b91506110d683610be4565b92508282026110e481610be4565b915082820484148315176110fb576110fa610f1b565b5b5092915050565b7f496e73756666696369656e74207061796d656e740000000000000000000000005f82015250565b5f611136601483610e15565b915061114182611102565b602082019050919050565b5f6020820190508181035f8301526111638161112a565b9050919050565b7f596f752061726520616c7265616479206120564950206d656d626572000000005f82015250565b5f61119e601c83610e15565b91506111a98261116a565b602082019050919050565b5f6020820190508181035f8301526111cb81611192565b9050919050565b5f6040820190506111e55f830185610bed565b6111f26020830184610ded565b9392505050565b7f4164647265737320697320616c7265616479206120564950206d656d626572005f82015250565b5f61122d601f83610e15565b9150611238826111f9565b602082019050919050565b5f6020820190508181035f83015261125a81611221565b9050919050565b7f546965722073686f756c642062652067726561746572207468616e20300000005f82015250565b5f611295601d83610e15565b91506112a082611261565b602082019050919050565b5f6020820190508181035f8301526112c281611289565b9050919050565b5f819050919050565b5f819050919050565b5f6112f56112f06112eb846112c9565b6112d2565b610be4565b9050919050565b611305816112db565b82525050565b5f60408201905061131e5f8301856112fc565b61132b6020830184610ded565b9392505050565b5f61133c82610cd1565b915060ff820361134f5761134e610f1b565b5b60018201905091905056fea264697066735822122018a97d9d8f2cf2dc3110308f8e6212cddfb6516274602983692d28c3a83c689464736f6c63430008140033",
  "linkReferences": {},
  "deployedLinkReferences": {}
}